{
  "transactions": [
    {
      "hash": "0xe58154dead2fb6102ab5ed6fb663e4c0735313c12c7baf7f4e6e574760feb894",
      "transactionType": "CALL",
      "contractName": null,
      "contractAddress": "0xb110688b9f1b6a88bdaf51e0e9be6a9243b52c94",
      "function": "setAttestationImpl(address)",
      "arguments": [
        "0x6D67Ae70d99A4CcE500De44628BCB4DaCfc1A145"
      ],
      "transaction": {
        "from": "0xfa17641b67ecbfe96e94c8278d8835a1adf64097",
        "to": "0xb110688b9f1b6a88bdaf51e0e9be6a9243b52c94",
        "gas": "0x10795",
        "value": "0x0",
        "input": "0xca8d44610000000000000000000000006d67ae70d99a4cce500de44628bcb4dacfc1a145",
        "nonce": "0xd54",
        "chainId": "0x1555e3"
      },
      "additionalContracts": [],
      "isFixedGasLimit": false
    }
  ],
  "receipts": [
    {
      "status": "0x1",
      "cumulativeGasUsed": "0x15fad",
      "logs": [],
      "logsBloom": "0x00000000000000000000000000000000000000000000000000000000000000000000000000000000000000000000000000000000000000000000000000000000000000000000000000000000000000000000000000000000000000000000000000000000000000000000000000000000000000000000000000000000000000000000000000000000000000000000000000000000000000000000000000000000000000000000000000000000000000000000000000000000000000000000000000000000000000000000000000000000000000000000000000000000000000000000000000000000000000000000000000000000000000000000000000000000",
      "type": "0x2",
      "transactionHash": "0xe58154dead2fb6102ab5ed6fb663e4c0735313c12c7baf7f4e6e574760feb894",
      "transactionIndex": "0x1",
      "blockHash": "0x4c1912167f7ca550801cb58990a393c5583b1e66fea3a3ee5923dbbe9f57226e",
      "blockNumber": "0x7cac90",
      "gasUsed": "0xb43b",
      "effectiveGasPrice": "0xfd",
      "from": "0xfa17641b67ecbfe96e94c8278d8835a1adf64097",
      "to": "0xb110688b9f1b6a88bdaf51e0e9be6a9243b52c94",
      "contractAddress": null,
      "l1BaseFeeScalar": "0x558",
      "l1BlobBaseFee": "0x314d7ee6",
      "l1BlobBaseFeeScalar": "0xc5fc5",
      "l1Fee": "0x112756091e",
      "l1GasPrice": "0xb39cf34d",
      "l1GasUsed": "0x640"
    }
  ],
  "libraries": [],
  "pending": [],
  "returns": {},
  "timestamp": 1735207169,
  "chain": 1398243,
  "commit": "f1b2190"
}